{
    "contractName": "TestToken",
    "abi": [
        {
            "inputs": [
                {
                    "internalType": "uint256",
                    "name": "initialSupply",
                    "type": "uint256"
                }
            ],
            "stateMutability": "nonpayable",
            "type": "constructor"
        },
        {
            "inputs": [],
            "name": "ECDSAInvalidSignature",
            "type": "error"
        },
        {
            "inputs": [
                {
                    "internalType": "uint256",
                    "name": "length",
                    "type": "uint256"
                }
            ],
            "name": "ECDSAInvalidSignatureLength",
            "type": "error"
        },
        {
            "inputs": [
                {
                    "internalType": "bytes32",
                    "name": "s",
                    "type": "bytes32"
                }
            ],
            "name": "ECDSAInvalidSignatureS",
            "type": "error"
        },
        {
            "inputs": [
                {
                    "internalType": "address",
                    "name": "spender",
                    "type": "address"
                },
                {
                    "internalType": "uint256",
                    "name": "allowance",
                    "type": "uint256"
                },
                {
                    "internalType": "uint256",
                    "name": "needed",
                    "type": "uint256"
                }
            ],
            "name": "ERC20InsufficientAllowance",
            "type": "error"
        },
        {
            "inputs": [
                {
                    "internalType": "address",
                    "name": "sender",
                    "type": "address"
                },
                {
                    "internalType": "uint256",
                    "name": "balance",
                    "type": "uint256"
                },
                {
                    "internalType": "uint256",
                    "name": "needed",
                    "type": "uint256"
                }
            ],
            "name": "ERC20InsufficientBalance",
            "type": "error"
        },
        {
            "inputs": [
                {
                    "internalType": "address",
                    "name": "approver",
                    "type": "address"
                }
            ],
            "name": "ERC20InvalidApprover",
            "type": "error"
        },
        {
            "inputs": [
                {
                    "internalType": "address",
                    "name": "receiver",
                    "type": "address"
                }
            ],
            "name": "ERC20InvalidReceiver",
            "type": "error"
        },
        {
            "inputs": [
                {
                    "internalType": "address",
                    "name": "sender",
                    "type": "address"
                }
            ],
            "name": "ERC20InvalidSender",
            "type": "error"
        },
        {
            "inputs": [
                {
                    "internalType": "address",
                    "name": "spender",
                    "type": "address"
                }
            ],
            "name": "ERC20InvalidSpender",
            "type": "error"
        },
        {
            "inputs": [],
            "name": "InvalidShortString",
            "type": "error"
        },
        {
            "inputs": [
                {
                    "internalType": "address",
                    "name": "owner",
                    "type": "address"
                }
            ],
            "name": "OwnableInvalidOwner",
            "type": "error"
        },
        {
            "inputs": [
                {
                    "internalType": "address",
                    "name": "account",
                    "type": "address"
                }
            ],
            "name": "OwnableUnauthorizedAccount",
            "type": "error"
        },
        {
            "inputs": [
                {
                    "internalType": "string",
                    "name": "str",
                    "type": "string"
                }
            ],
            "name": "StringTooLong",
            "type": "error"
        },
        {
            "anonymous": false,
            "inputs": [
                {
                    "indexed": true,
                    "internalType": "address",
                    "name": "owner",
                    "type": "address"
                },
                {
                    "indexed": true,
                    "internalType": "address",
                    "name": "spender",
                    "type": "address"
                },
                {
                    "indexed": false,
                    "internalType": "uint256",
                    "name": "value",
                    "type": "uint256"
                }
            ],
            "name": "Approval",
            "type": "event"
        },
        {
            "anonymous": false,
            "inputs": [],
            "name": "EIP712DomainChanged",
            "type": "event"
        },
        {
            "anonymous": false,
            "inputs": [
                {
                    "indexed": true,
                    "internalType": "address",
                    "name": "previousOwner",
                    "type": "address"
                },
                {
                    "indexed": true,
                    "internalType": "address",
                    "name": "newOwner",
                    "type": "address"
                }
            ],
            "name": "OwnershipTransferred",
            "type": "event"
        },
        {
            "anonymous": false,
            "inputs": [
                {
                    "indexed": true,
                    "internalType": "address",
                    "name": "from",
                    "type": "address"
                },
                {
                    "indexed": true,
                    "internalType": "address",
                    "name": "to",
                    "type": "address"
                },
                {
                    "indexed": false,
                    "internalType": "uint256",
                    "name": "value",
                    "type": "uint256"
                }
            ],
            "name": "Transfer",
            "type": "event"
        },
        {
            "inputs": [
                {
                    "internalType": "address",
                    "name": "owner",
                    "type": "address"
                },
                {
                    "internalType": "address",
                    "name": "spender",
                    "type": "address"
                }
            ],
            "name": "allowance",
            "outputs": [
                {
                    "internalType": "uint256",
                    "name": "",
                    "type": "uint256"
                }
            ],
            "stateMutability": "view",
            "type": "function"
        },
        {
            "inputs": [
                {
                    "internalType": "address",
                    "name": "spender",
                    "type": "address"
                },
                {
                    "internalType": "uint256",
                    "name": "value",
                    "type": "uint256"
                }
            ],
            "name": "approve",
            "outputs": [
                {
                    "internalType": "bool",
                    "name": "",
                    "type": "bool"
                }
            ],
            "stateMutability": "nonpayable",
            "type": "function"
        },
        {
            "inputs": [
                {
                    "internalType": "address",
                    "name": "account",
                    "type": "address"
                }
            ],
            "name": "balanceOf",
            "outputs": [
                {
                    "internalType": "uint256",
                    "name": "",
                    "type": "uint256"
                }
            ],
            "stateMutability": "view",
            "type": "function"
        },
        {
            "inputs": [],
            "name": "decimals",
            "outputs": [
                {
                    "internalType": "uint8",
                    "name": "",
                    "type": "uint8"
                }
            ],
            "stateMutability": "view",
            "type": "function"
        },
        {
            "inputs": [],
            "name": "eip712Domain",
            "outputs": [
                {
                    "internalType": "bytes1",
                    "name": "fields",
                    "type": "bytes1"
                },
                {
                    "internalType": "string",
                    "name": "name",
                    "type": "string"
                },
                {
                    "internalType": "string",
                    "name": "version",
                    "type": "string"
                },
                {
                    "internalType": "uint256",
                    "name": "chainId",
                    "type": "uint256"
                },
                {
                    "internalType": "address",
                    "name": "verifyingContract",
                    "type": "address"
                },
                {
                    "internalType": "bytes32",
                    "name": "salt",
                    "type": "bytes32"
                },
                {
                    "internalType": "uint256[]",
                    "name": "extensions",
                    "type": "uint256[]"
                }
            ],
            "stateMutability": "view",
            "type": "function"
        },
        {
            "inputs": [
                {
                    "internalType": "address",
                    "name": "owner",
                    "type": "address"
                },
                {
                    "internalType": "address",
                    "name": "spender",
                    "type": "address"
                },
                {
                    "internalType": "uint256",
                    "name": "value",
                    "type": "uint256"
                },
                {
                    "internalType": "uint256",
                    "name": "deadline",
                    "type": "uint256"
                },
                {
                    "internalType": "bytes",
                    "name": "signature",
                    "type": "bytes"
                }
            ],
            "name": "metaApprove",
            "outputs": [],
            "stateMutability": "nonpayable",
            "type": "function"
        },
        {
            "inputs": [
                {
                    "internalType": "address",
                    "name": "to",
                    "type": "address"
                },
                {
                    "internalType": "uint256",
                    "name": "amount",
                    "type": "uint256"
                }
            ],
            "name": "mint",
            "outputs": [],
            "stateMutability": "nonpayable",
            "type": "function"
        },
        {
            "inputs": [],
            "name": "name",
            "outputs": [
                {
                    "internalType": "string",
                    "name": "",
                    "type": "string"
                }
            ],
            "stateMutability": "view",
            "type": "function"
        },
        {
            "inputs": [
                {
                    "internalType": "address",
                    "name": "",
                    "type": "address"
                }
            ],
            "name": "nonces",
            "outputs": [
                {
                    "internalType": "uint256",
                    "name": "",
                    "type": "uint256"
                }
            ],
            "stateMutability": "view",
            "type": "function"
        },
        {
            "inputs": [],
            "name": "owner",
            "outputs": [
                {
                    "internalType": "address",
                    "name": "",
                    "type": "address"
                }
            ],
            "stateMutability": "view",
            "type": "function"
        },
        {
            "inputs": [],
            "name": "renounceOwnership",
            "outputs": [],
            "stateMutability": "nonpayable",
            "type": "function"
        },
        {
            "inputs": [],
            "name": "symbol",
            "outputs": [
                {
                    "internalType": "string",
                    "name": "",
                    "type": "string"
                }
            ],
            "stateMutability": "view",
            "type": "function"
        },
        {
            "inputs": [],
            "name": "totalSupply",
            "outputs": [
                {
                    "internalType": "uint256",
                    "name": "",
                    "type": "uint256"
                }
            ],
            "stateMutability": "view",
            "type": "function"
        },
        {
            "inputs": [
                {
                    "internalType": "address",
                    "name": "to",
                    "type": "address"
                },
                {
                    "internalType": "uint256",
                    "name": "value",
                    "type": "uint256"
                }
            ],
            "name": "transfer",
            "outputs": [
                {
                    "internalType": "bool",
                    "name": "",
                    "type": "bool"
                }
            ],
            "stateMutability": "nonpayable",
            "type": "function"
        },
        {
            "inputs": [
                {
                    "internalType": "address",
                    "name": "from",
                    "type": "address"
                },
                {
                    "internalType": "address",
                    "name": "to",
                    "type": "address"
                },
                {
                    "internalType": "uint256",
                    "name": "value",
                    "type": "uint256"
                }
            ],
            "name": "transferFrom",
            "outputs": [
                {
                    "internalType": "bool",
                    "name": "",
                    "type": "bool"
                }
            ],
            "stateMutability": "nonpayable",
            "type": "function"
        },
        {
            "inputs": [
                {
                    "internalType": "address",
                    "name": "newOwner",
                    "type": "address"
                }
            ],
            "name": "transferOwnership",
            "outputs": [],
            "stateMutability": "nonpayable",
            "type": "function"
        }
    ],
    "bytecode": "6101608060405234610509576020816116aa8038038091610020828561050d565b833981010312610509575160405161003960408261050d565b600981526020810190682a32b9ba2a37b5b2b760b91b82526040519161006060408461050d565b600183526020830191603160f81b835260405161007e60408261050d565b60098152682a32b9ba2a37b5b2b760b91b6020820152604051906100a360408361050d565b60048252632a2a25a760e11b60208301528051906001600160401b03821161040c5760035490600182811c921680156104ff575b60208310146103ee5781601f849311610491575b50602090601f831160011461042b575f92610420575b50508160011b915f199060031b1c1916176003555b8051906001600160401b03821161040c5760045490600182811c92168015610402575b60208310146103ee5781601f849311610380575b50602090601f831160011461031a575f9261030f575b50508160011b915f199060031b1c1916176004555b33156102fc5760058054336001600160a01b0319821681179092556001600160a01b03167f8be0079c531659141344cd1fd0a4f28419497f9722a3daafe3b4186f6b6457e05f80a36101c981610530565b610120526101d6846106b7565b61014052519020918260e05251902080610100524660a0526040519060208201927f8b73c3c69bb8fe3d512ecc4cf759cc79239f7b179b0ffacaa9a75d522b39400f8452604083015260608201524660808201523060a082015260a0815261023f60c08261050d565b5190206080523060c0526002548181018091116102e857600255335f525f60205260405f208181540190556040519081525f7fddf252ad1be2c89b69c2b068fc378daa952ba7f163c4a11628f55a4df523b3ef60203393a3604051610eba90816107f0823960805181610c66015260a05181610d23015260c05181610c30015260e05181610cb501526101005181610cdb015261012051816104ff015261014051816105280152f35b634e487b7160e01b5f52601160045260245ffd5b631e4fbdf760e01b5f525f60045260245ffd5b015190505f80610163565b60045f9081528281209350601f198516905b8181106103685750908460019594939210610350575b505050811b01600455610178565b01515f1960f88460031b161c191690555f8080610342565b9293602060018192878601518155019501930161032c565b60045f529091507f8a35acfbc15ff81a39ae7d344fd709f28e8600b4aa8c65c6b64bfe7fe36bd19b601f840160051c810191602085106103e4575b90601f859493920160051c01905b8181106103d6575061014d565b5f81558493506001016103c9565b90915081906103bb565b634e487b7160e01b5f52602260045260245ffd5b91607f1691610139565b634e487b7160e01b5f52604160045260245ffd5b015190505f80610101565b60035f9081528281209350601f198516905b8181106104795750908460019594939210610461575b505050811b01600355610116565b01515f1960f88460031b161c191690555f8080610453565b9293602060018192878601518155019501930161043d565b60035f529091507fc2575a0e9e593c00f959f8c92f12db2869c3395a3b0502d05e2516446f71f85b601f840160051c810191602085106104f5575b90601f859493920160051c01905b8181106104e757506100eb565b5f81558493506001016104da565b90915081906104cc565b91607f16916100d7565b5f80fd5b601f909101601f19168101906001600160401b0382119082101761040c57604052565b908151602081105f146105aa575090601f81511161056a57602081519101516020821061055b571790565b5f198260200360031b1b161790565b604460209160405192839163305a27a960e01b83528160048401528051918291826024860152018484015e5f828201840152601f01601f19168101030190fd5b6001600160401b03811161040c57600654600181811c911680156106ad575b60208210146103ee57601f811161067a575b50602092601f821160011461061957928192935f9261060e575b50508160011b915f199060031b1c19161760065560ff90565b015190505f806105f5565b601f1982169360065f52805f20915f5b868110610662575083600195961061064a575b505050811b0160065560ff90565b01515f1960f88460031b161c191690555f808061063c565b91926020600181928685015181550194019201610629565b60065f52601f60205f20910160051c810190601f830160051c015b8181106106a257506105db565b5f8155600101610695565b90607f16906105c9565b908151602081105f146106e2575090601f81511161056a57602081519101516020821061055b571790565b6001600160401b03811161040c57600754600181811c911680156107e5575b60208210146103ee57601f81116107b2575b50602092601f821160011461075157928192935f92610746575b50508160011b915f199060031b1c19161760075560ff90565b015190505f8061072d565b601f1982169360075f52805f20915f5b86811061079a5750836001959610610782575b505050811b0160075560ff90565b01515f1960f88460031b161c191690555f8080610774565b91926020600181928685015181550194019201610761565b60075f52601f60205f20910160051c810190601f830160051c015b8181106107da5750610713565b5f81556001016107cd565b90607f169061070156fe6080806040526004361015610012575f80fd5b5f3560e01c90816306fdde031461087e57508063095ea7b31461085857806318160ddd1461083b57806323b872dd1461075c578063313ce5671461074157806340c10f19146106a957806370a0823114610672578063715018a6146106175780637ecebe00146105df57806384b0196e146104e75780638da5cb5b146104bf57806395d89b41146103dd5780639e654ae0146101d7578063a9059cbb146101a6578063dd62ed3e146101565763f2fde38b146100cc575f80fd5b34610152576020366003190112610152576100e5610944565b6100ed610b09565b6001600160a01b0316801561013f57600580546001600160a01b0319811683179091556001600160a01b03167f8be0079c531659141344cd1fd0a4f28419497f9722a3daafe3b4186f6b6457e05f80a3005b631e4fbdf760e01b5f525f60045260245ffd5b5f80fd5b346101525760403660031901126101525761016f610944565b61017761095a565b6001600160a01b039182165f908152600160209081526040808320949093168252928352819020549051908152f35b34610152576040366003190112610152576101cc6101c2610944565b6024359033610a5f565b602060405160018152f35b346101525760a0366003190112610152576101f0610944565b6101f861095a565b6044359060843560643567ffffffffffffffff8211610152573660238301121561015257816004013567ffffffffffffffff8111610152573660248285010111610152578142116103a15760018060a01b03861692835f52600860205260405f209182545f19811461038d57602060428261032f976103269760015f9601905560405190848201927f62a03110151293c75745163675d3815af29dee6f6a158f4102c72316d773bd5e84528b604084015260018060a01b038d1660608401528d608084015260a083015260c082015260c081526102d660e082610a29565b5190206102e1610c2d565b906040519161190160f01b835260028301526022820152209280602483601f19601f84011601966103156040519889610a29565b828852018387013784010152610d49565b90929192610d83565b6001600160a01b0316036103485761034692610b30565b005b60405162461bcd60e51b815260206004820152601e60248201527f4d657461417070726f76653a20696e76616c6964207369676e617475726500006044820152606490fd5b634e487b7160e01b5f52601160045260245ffd5b60405162461bcd60e51b815260206004820152601460248201527313595d18505c1c1c9bdd994e88195e1c1a5c995960621b6044820152606490fd5b34610152575f366003190112610152576040515f6004546103fd81610970565b808452906001811690811561049b575060011461043d575b6104398361042581850382610a29565b604051918291602083526020830190610920565b0390f35b60045f9081527f8a35acfbc15ff81a39ae7d344fd709f28e8600b4aa8c65c6b64bfe7fe36bd19b939250905b80821061048157509091508101602001610425610415565b919260018160209254838588010152019101909291610469565b60ff191660208086019190915291151560051b840190910191506104259050610415565b34610152575f366003190112610152576005546040516001600160a01b039091168152602090f35b34610152575f366003190112610152576105836105237f0000000000000000000000000000000000000000000000000000000000000000610b93565b61054c7f0000000000000000000000000000000000000000000000000000000000000000610bf6565b60206105916040519261055f8385610a29565b5f84525f368137604051958695600f60f81b875260e08588015260e0870190610920565b908582036040870152610920565b4660608501523060808501525f60a085015283810360c08501528180845192838152019301915f5b8281106105c857505050500390f35b8351855286955093810193928101926001016105b9565b34610152576020366003190112610152576001600160a01b03610600610944565b165f526008602052602060405f2054604051908152f35b34610152575f3660031901126101525761062f610b09565b600580546001600160a01b031981169091555f906001600160a01b03167f8be0079c531659141344cd1fd0a4f28419497f9722a3daafe3b4186f6b6457e08280a3005b34610152576020366003190112610152576001600160a01b03610693610944565b165f525f602052602060405f2054604051908152f35b34610152576040366003190112610152576106c2610944565b602435906106ce610b09565b6001600160a01b031690811561072e576002549080820180921161038d5760207fddf252ad1be2c89b69c2b068fc378daa952ba7f163c4a11628f55a4df523b3ef915f9360025584845283825260408420818154019055604051908152a3005b63ec442f0560e01b5f525f60045260245ffd5b34610152575f36600319011261015257602060405160128152f35b3461015257606036600319011261015257610775610944565b61077d61095a565b6001600160a01b0382165f818152600160209081526040808320338452909152902054909260443592915f1981106107bb575b506101cc9350610a5f565b83811061082057841561080d5733156107fa576101cc945f52600160205260405f2060018060a01b0333165f526020528360405f2091039055846107b0565b634a1406b160e11b5f525f60045260245ffd5b63e602df0560e01b5f525f60045260245ffd5b8390637dc7a0d960e11b5f523360045260245260445260645ffd5b34610152575f366003190112610152576020600254604051908152f35b34610152576040366003190112610152576101cc610874610944565b6024359033610b30565b34610152575f366003190112610152575f60035461089b81610970565b808452906001811690811561049b57506001146108c2576104398361042581850382610a29565b60035f9081527fc2575a0e9e593c00f959f8c92f12db2869c3395a3b0502d05e2516446f71f85b939250905b80821061090657509091508101602001610425610415565b9192600181602092548385880101520191019092916108ee565b805180835260209291819084018484015e5f828201840152601f01601f1916010190565b600435906001600160a01b038216820361015257565b602435906001600160a01b038216820361015257565b90600182811c9216801561099e575b602083101461098a57565b634e487b7160e01b5f52602260045260245ffd5b91607f169161097f565b5f92918154916109b783610970565b8083529260018116908115610a0c57506001146109d357505050565b5f9081526020812093945091925b8383106109f2575060209250010190565b6001816020929493945483858701015201910191906109e1565b915050602093945060ff929192191683830152151560051b010190565b90601f8019910116810190811067ffffffffffffffff821117610a4b57604052565b634e487b7160e01b5f52604160045260245ffd5b6001600160a01b0316908115610af6576001600160a01b031691821561072e57815f525f60205260405f2054818110610add57817fddf252ad1be2c89b69c2b068fc378daa952ba7f163c4a11628f55a4df523b3ef92602092855f525f84520360405f2055845f525f825260405f20818154019055604051908152a3565b8263391434e360e21b5f5260045260245260445260645ffd5b634b637e8f60e11b5f525f60045260245ffd5b6005546001600160a01b03163303610b1d57565b63118cdaa760e01b5f523360045260245ffd5b6001600160a01b031690811561080d576001600160a01b03169182156107fa5760207f8c5be1e5ebec7d5bd14f71427d1e84f3dd0314c0f7b2291e5b200ac8c7c3b92591835f526001825260405f20855f5282528060405f2055604051908152a3565b60ff8114610bd95760ff811690601f8211610bca5760405191610bb7604084610a29565b6020808452838101919036833783525290565b632cd44ac360e21b5f5260045ffd5b50604051610bf381610bec8160066109a8565b0382610a29565b90565b60ff8114610c1a5760ff811690601f8211610bca5760405191610bb7604084610a29565b50604051610bf381610bec8160076109a8565b307f00000000000000000000000000000000000000000000000000000000000000006001600160a01b03161480610d20575b15610c88577f000000000000000000000000000000000000000000000000000000000000000090565b60405160208101907f8b73c3c69bb8fe3d512ecc4cf759cc79239f7b179b0ffacaa9a75d522b39400f82527f000000000000000000000000000000000000000000000000000000000000000060408201527f000000000000000000000000000000000000000000000000000000000000000060608201524660808201523060a082015260a08152610d1a60c082610a29565b51902090565b507f00000000000000000000000000000000000000000000000000000000000000004614610c5f565b8151919060418303610d7957610d729250602082015190606060408401519301515f1a90610df7565b9192909190565b50505f9160029190565b6004811015610de35780610d95575050565b60018103610dac5763f645eedf60e01b5f5260045ffd5b60028103610dc7575063fce698f760e01b5f5260045260245ffd5b600314610dd15750565b6335e2f38360e21b5f5260045260245ffd5b634e487b7160e01b5f52602160045260245ffd5b91907f7fffffffffffffffffffffffffffffff5d576e7357a4501ddfe92f46681b20a08411610e79579160209360809260ff5f9560405194855216868401526040830152606082015282805260015afa15610e6e575f516001600160a01b03811615610e6457905f905f90565b505f906001905f90565b6040513d5f823e3d90fd5b5050505f916003919056fea2646970667358221220d1f2191d0ec95b82c923242477118e186c3ec6eeb4843c421898f270ab0e703064736f6c634300081a0033",
    "sourcePath": "/Users/j.yoon/Desktop/Jungah/payment/contract/contracts/TestToken.sol",
    "compiler": {
        "name": "solc",
        "version": "0.8.26+commit.8a97fa7a"
    },
    "functionHashes": {
        "allowance(address,address)": "dd62ed3e",
        "approve(address,uint256)": "095ea7b3",
        "balanceOf(address)": "70a08231",
        "decimals()": "313ce567",
        "eip712Domain()": "84b0196e",
        "metaApprove(address,address,uint256,uint256,bytes)": "9e654ae0",
        "mint(address,uint256)": "40c10f19",
        "name()": "06fdde03",
        "nonces(address)": "7ecebe00",
        "owner()": "8da5cb5b",
        "renounceOwnership()": "715018a6",
        "symbol()": "95d89b41",
        "totalSupply()": "18160ddd",
        "transfer(address,uint256)": "a9059cbb",
        "transferFrom(address,address,uint256)": "23b872dd",
        "transferOwnership(address)": "f2fde38b"
    },
    "gasEstimates": {
        "creation": {
            "codeDepositCost": "754000",
            "executionCost": "infinite",
            "totalCost": "infinite"
        },
        "external": {
            "allowance(address,address)": "2881",
            "approve(address,uint256)": "24372",
            "balanceOf(address)": "2537",
            "decimals()": "241",
            "eip712Domain()": "infinite",
            "metaApprove(address,address,uint256,uint256,bytes)": "infinite",
            "mint(address,uint256)": "52834",
            "name()": "infinite",
            "nonces(address)": "2582",
            "owner()": "2500",
            "renounceOwnership()": "28214",
            "symbol()": "infinite",
            "totalSupply()": "2300",
            "transfer(address,uint256)": "51040",
            "transferFrom(address,address,uint256)": "75523",
            "transferOwnership(address)": "28498"
        }
    }
}