{
  "_format": "hh-sol-artifact-1",
  "contractName": "Coupon1155",
  "sourceName": "contracts/Coupon1155.sol",
  "abi": [
    {
      "inputs": [
        {
          "internalType": "string",
          "name": "baseURI_",
          "type": "string"
        },
        {
          "internalType": "address",
          "name": "owner_",
          "type": "address"
        }
      ],
      "stateMutability": "nonpayable",
      "type": "constructor"
    },
    {
      "inputs": [
        {
          "internalType": "address",
          "name": "sender",
          "type": "address"
        },
        {
          "internalType": "uint256",
          "name": "balance",
          "type": "uint256"
        },
        {
          "internalType": "uint256",
          "name": "needed",
          "type": "uint256"
        },
        {
          "internalType": "uint256",
          "name": "tokenId",
          "type": "uint256"
        }
      ],
      "name": "ERC1155InsufficientBalance",
      "type": "error"
    },
    {
      "inputs": [
        {
          "internalType": "address",
          "name": "approver",
          "type": "address"
        }
      ],
      "name": "ERC1155InvalidApprover",
      "type": "error"
    },
    {
      "inputs": [
        {
          "internalType": "uint256",
          "name": "idsLength",
          "type": "uint256"
        },
        {
          "internalType": "uint256",
          "name": "valuesLength",
          "type": "uint256"
        }
      ],
      "name": "ERC1155InvalidArrayLength",
      "type": "error"
    },
    {
      "inputs": [
        {
          "internalType": "address",
          "name": "operator",
          "type": "address"
        }
      ],
      "name": "ERC1155InvalidOperator",
      "type": "error"
    },
    {
      "inputs": [
        {
          "internalType": "address",
          "name": "receiver",
          "type": "address"
        }
      ],
      "name": "ERC1155InvalidReceiver",
      "type": "error"
    },
    {
      "inputs": [
        {
          "internalType": "address",
          "name": "sender",
          "type": "address"
        }
      ],
      "name": "ERC1155InvalidSender",
      "type": "error"
    },
    {
      "inputs": [
        {
          "internalType": "address",
          "name": "operator",
          "type": "address"
        },
        {
          "internalType": "address",
          "name": "owner",
          "type": "address"
        }
      ],
      "name": "ERC1155MissingApprovalForAll",
      "type": "error"
    },
    {
      "inputs": [
        {
          "internalType": "uint256",
          "name": "numerator",
          "type": "uint256"
        },
        {
          "internalType": "uint256",
          "name": "denominator",
          "type": "uint256"
        }
      ],
      "name": "ERC2981InvalidDefaultRoyalty",
      "type": "error"
    },
    {
      "inputs": [
        {
          "internalType": "address",
          "name": "receiver",
          "type": "address"
        }
      ],
      "name": "ERC2981InvalidDefaultRoyaltyReceiver",
      "type": "error"
    },
    {
      "inputs": [
        {
          "internalType": "uint256",
          "name": "tokenId",
          "type": "uint256"
        },
        {
          "internalType": "uint256",
          "name": "numerator",
          "type": "uint256"
        },
        {
          "internalType": "uint256",
          "name": "denominator",
          "type": "uint256"
        }
      ],
      "name": "ERC2981InvalidTokenRoyalty",
      "type": "error"
    },
    {
      "inputs": [
        {
          "internalType": "uint256",
          "name": "tokenId",
          "type": "uint256"
        },
        {
          "internalType": "address",
          "name": "receiver",
          "type": "address"
        }
      ],
      "name": "ERC2981InvalidTokenRoyaltyReceiver",
      "type": "error"
    },
    {
      "inputs": [
        {
          "internalType": "address",
          "name": "owner",
          "type": "address"
        }
      ],
      "name": "OwnableInvalidOwner",
      "type": "error"
    },
    {
      "inputs": [
        {
          "internalType": "address",
          "name": "account",
          "type": "address"
        }
      ],
      "name": "OwnableUnauthorizedAccount",
      "type": "error"
    },
    {
      "anonymous": false,
      "inputs": [
        {
          "indexed": true,
          "internalType": "address",
          "name": "account",
          "type": "address"
        },
        {
          "indexed": true,
          "internalType": "address",
          "name": "operator",
          "type": "address"
        },
        {
          "indexed": false,
          "internalType": "bool",
          "name": "approved",
          "type": "bool"
        }
      ],
      "name": "ApprovalForAll",
      "type": "event"
    },
    {
      "anonymous": false,
      "inputs": [],
      "name": "BaseURIFrozen",
      "type": "event"
    },
    {
      "anonymous": false,
      "inputs": [
        {
          "indexed": true,
          "internalType": "address",
          "name": "previousOwner",
          "type": "address"
        },
        {
          "indexed": true,
          "internalType": "address",
          "name": "newOwner",
          "type": "address"
        }
      ],
      "name": "OwnershipTransferStarted",
      "type": "event"
    },
    {
      "anonymous": false,
      "inputs": [
        {
          "indexed": true,
          "internalType": "address",
          "name": "previousOwner",
          "type": "address"
        },
        {
          "indexed": true,
          "internalType": "address",
          "name": "newOwner",
          "type": "address"
        }
      ],
      "name": "OwnershipTransferred",
      "type": "event"
    },
    {
      "anonymous": false,
      "inputs": [
        {
          "indexed": true,
          "internalType": "uint256",
          "name": "id",
          "type": "uint256"
        }
      ],
      "name": "TokenURIFrozen",
      "type": "event"
    },
    {
      "anonymous": false,
      "inputs": [
        {
          "indexed": true,
          "internalType": "address",
          "name": "operator",
          "type": "address"
        },
        {
          "indexed": true,
          "internalType": "address",
          "name": "from",
          "type": "address"
        },
        {
          "indexed": true,
          "internalType": "address",
          "name": "to",
          "type": "address"
        },
        {
          "indexed": false,
          "internalType": "uint256[]",
          "name": "ids",
          "type": "uint256[]"
        },
        {
          "indexed": false,
          "internalType": "uint256[]",
          "name": "values",
          "type": "uint256[]"
        }
      ],
      "name": "TransferBatch",
      "type": "event"
    },
    {
      "anonymous": false,
      "inputs": [
        {
          "indexed": true,
          "internalType": "address",
          "name": "operator",
          "type": "address"
        },
        {
          "indexed": true,
          "internalType": "address",
          "name": "from",
          "type": "address"
        },
        {
          "indexed": true,
          "internalType": "address",
          "name": "to",
          "type": "address"
        },
        {
          "indexed": false,
          "internalType": "uint256",
          "name": "id",
          "type": "uint256"
        },
        {
          "indexed": false,
          "internalType": "uint256",
          "name": "value",
          "type": "uint256"
        }
      ],
      "name": "TransferSingle",
      "type": "event"
    },
    {
      "anonymous": false,
      "inputs": [
        {
          "indexed": false,
          "internalType": "string",
          "name": "value",
          "type": "string"
        },
        {
          "indexed": true,
          "internalType": "uint256",
          "name": "id",
          "type": "uint256"
        }
      ],
      "name": "URI",
      "type": "event"
    },
    {
      "inputs": [],
      "name": "acceptOwnership",
      "outputs": [],
      "stateMutability": "nonpayable",
      "type": "function"
    },
    {
      "inputs": [
        {
          "internalType": "address",
          "name": "account",
          "type": "address"
        },
        {
          "internalType": "uint256",
          "name": "id",
          "type": "uint256"
        }
      ],
      "name": "balanceOf",
      "outputs": [
        {
          "internalType": "uint256",
          "name": "",
          "type": "uint256"
        }
      ],
      "stateMutability": "view",
      "type": "function"
    },
    {
      "inputs": [
        {
          "internalType": "address[]",
          "name": "accounts",
          "type": "address[]"
        },
        {
          "internalType": "uint256[]",
          "name": "ids",
          "type": "uint256[]"
        }
      ],
      "name": "balanceOfBatch",
      "outputs": [
        {
          "internalType": "uint256[]",
          "name": "",
          "type": "uint256[]"
        }
      ],
      "stateMutability": "view",
      "type": "function"
    },
    {
      "inputs": [
        {
          "internalType": "address",
          "name": "account",
          "type": "address"
        },
        {
          "internalType": "uint256",
          "name": "id",
          "type": "uint256"
        },
        {
          "internalType": "uint256",
          "name": "value",
          "type": "uint256"
        }
      ],
      "name": "burn",
      "outputs": [],
      "stateMutability": "nonpayable",
      "type": "function"
    },
    {
      "inputs": [
        {
          "internalType": "address",
          "name": "account",
          "type": "address"
        },
        {
          "internalType": "uint256[]",
          "name": "ids",
          "type": "uint256[]"
        },
        {
          "internalType": "uint256[]",
          "name": "values",
          "type": "uint256[]"
        }
      ],
      "name": "burnBatch",
      "outputs": [],
      "stateMutability": "nonpayable",
      "type": "function"
    },
    {
      "inputs": [
        {
          "internalType": "uint256",
          "name": "id",
          "type": "uint256"
        }
      ],
      "name": "clearTokenURI",
      "outputs": [],
      "stateMutability": "nonpayable",
      "type": "function"
    },
    {
      "inputs": [
        {
          "internalType": "uint256",
          "name": "id",
          "type": "uint256"
        }
      ],
      "name": "exists",
      "outputs": [
        {
          "internalType": "bool",
          "name": "",
          "type": "bool"
        }
      ],
      "stateMutability": "view",
      "type": "function"
    },
    {
      "inputs": [],
      "name": "freezeBaseURI",
      "outputs": [],
      "stateMutability": "nonpayable",
      "type": "function"
    },
    {
      "inputs": [
        {
          "internalType": "uint256",
          "name": "id",
          "type": "uint256"
        }
      ],
      "name": "freezeTokenURI",
      "outputs": [],
      "stateMutability": "nonpayable",
      "type": "function"
    },
    {
      "inputs": [
        {
          "internalType": "address",
          "name": "account",
          "type": "address"
        },
        {
          "internalType": "address",
          "name": "operator",
          "type": "address"
        }
      ],
      "name": "isApprovedForAll",
      "outputs": [
        {
          "internalType": "bool",
          "name": "",
          "type": "bool"
        }
      ],
      "stateMutability": "view",
      "type": "function"
    },
    {
      "inputs": [],
      "name": "isBaseFrozen",
      "outputs": [
        {
          "internalType": "bool",
          "name": "",
          "type": "bool"
        }
      ],
      "stateMutability": "view",
      "type": "function"
    },
    {
      "inputs": [
        {
          "internalType": "uint256",
          "name": "id",
          "type": "uint256"
        }
      ],
      "name": "isTokenFrozen",
      "outputs": [
        {
          "internalType": "bool",
          "name": "",
          "type": "bool"
        }
      ],
      "stateMutability": "view",
      "type": "function"
    },
    {
      "inputs": [
        {
          "internalType": "address",
          "name": "to",
          "type": "address"
        },
        {
          "internalType": "uint256",
          "name": "id",
          "type": "uint256"
        },
        {
          "internalType": "uint256",
          "name": "amount",
          "type": "uint256"
        },
        {
          "internalType": "bytes",
          "name": "data",
          "type": "bytes"
        }
      ],
      "name": "mint",
      "outputs": [],
      "stateMutability": "nonpayable",
      "type": "function"
    },
    {
      "inputs": [
        {
          "internalType": "address",
          "name": "to",
          "type": "address"
        },
        {
          "internalType": "uint256[]",
          "name": "ids",
          "type": "uint256[]"
        },
        {
          "internalType": "uint256[]",
          "name": "amounts",
          "type": "uint256[]"
        },
        {
          "internalType": "bytes",
          "name": "data",
          "type": "bytes"
        }
      ],
      "name": "mintBatch",
      "outputs": [],
      "stateMutability": "nonpayable",
      "type": "function"
    },
    {
      "inputs": [],
      "name": "owner",
      "outputs": [
        {
          "internalType": "address",
          "name": "",
          "type": "address"
        }
      ],
      "stateMutability": "view",
      "type": "function"
    },
    {
      "inputs": [],
      "name": "pendingOwner",
      "outputs": [
        {
          "internalType": "address",
          "name": "",
          "type": "address"
        }
      ],
      "stateMutability": "view",
      "type": "function"
    },
    {
      "inputs": [],
      "name": "renounceOwnership",
      "outputs": [],
      "stateMutability": "nonpayable",
      "type": "function"
    },
    {
      "inputs": [
        {
          "internalType": "uint256",
          "name": "tokenId",
          "type": "uint256"
        }
      ],
      "name": "resetTokenRoyalty",
      "outputs": [],
      "stateMutability": "nonpayable",
      "type": "function"
    },
    {
      "inputs": [
        {
          "internalType": "uint256",
          "name": "tokenId",
          "type": "uint256"
        },
        {
          "internalType": "uint256",
          "name": "salePrice",
          "type": "uint256"
        }
      ],
      "name": "royaltyInfo",
      "outputs": [
        {
          "internalType": "address",
          "name": "receiver",
          "type": "address"
        },
        {
          "internalType": "uint256",
          "name": "amount",
          "type": "uint256"
        }
      ],
      "stateMutability": "view",
      "type": "function"
    },
    {
      "inputs": [
        {
          "internalType": "address",
          "name": "from",
          "type": "address"
        },
        {
          "internalType": "address",
          "name": "to",
          "type": "address"
        },
        {
          "internalType": "uint256[]",
          "name": "ids",
          "type": "uint256[]"
        },
        {
          "internalType": "uint256[]",
          "name": "values",
          "type": "uint256[]"
        },
        {
          "internalType": "bytes",
          "name": "data",
          "type": "bytes"
        }
      ],
      "name": "safeBatchTransferFrom",
      "outputs": [],
      "stateMutability": "nonpayable",
      "type": "function"
    },
    {
      "inputs": [
        {
          "internalType": "address",
          "name": "from",
          "type": "address"
        },
        {
          "internalType": "address",
          "name": "to",
          "type": "address"
        },
        {
          "internalType": "uint256",
          "name": "id",
          "type": "uint256"
        },
        {
          "internalType": "uint256",
          "name": "value",
          "type": "uint256"
        },
        {
          "internalType": "bytes",
          "name": "data",
          "type": "bytes"
        }
      ],
      "name": "safeTransferFrom",
      "outputs": [],
      "stateMutability": "nonpayable",
      "type": "function"
    },
    {
      "inputs": [
        {
          "internalType": "address",
          "name": "operator",
          "type": "address"
        },
        {
          "internalType": "bool",
          "name": "approved",
          "type": "bool"
        }
      ],
      "name": "setApprovalForAll",
      "outputs": [],
      "stateMutability": "nonpayable",
      "type": "function"
    },
    {
      "inputs": [
        {
          "internalType": "string",
          "name": "newBase",
          "type": "string"
        }
      ],
      "name": "setBaseURI",
      "outputs": [],
      "stateMutability": "nonpayable",
      "type": "function"
    },
    {
      "inputs": [
        {
          "internalType": "address",
          "name": "receiver",
          "type": "address"
        },
        {
          "internalType": "uint96",
          "name": "feeBps",
          "type": "uint96"
        }
      ],
      "name": "setDefaultRoyalty",
      "outputs": [],
      "stateMutability": "nonpayable",
      "type": "function"
    },
    {
      "inputs": [
        {
          "internalType": "uint256",
          "name": "tokenId",
          "type": "uint256"
        },
        {
          "internalType": "address",
          "name": "receiver",
          "type": "address"
        },
        {
          "internalType": "uint96",
          "name": "feeBps",
          "type": "uint96"
        }
      ],
      "name": "setTokenRoyalty",
      "outputs": [],
      "stateMutability": "nonpayable",
      "type": "function"
    },
    {
      "inputs": [
        {
          "internalType": "uint256",
          "name": "id",
          "type": "uint256"
        },
        {
          "internalType": "string",
          "name": "newuri",
          "type": "string"
        }
      ],
      "name": "setTokenURI",
      "outputs": [],
      "stateMutability": "nonpayable",
      "type": "function"
    },
    {
      "inputs": [
        {
          "internalType": "uint256[]",
          "name": "ids",
          "type": "uint256[]"
        },
        {
          "internalType": "string[]",
          "name": "uris",
          "type": "string[]"
        }
      ],
      "name": "setTokenURIs",
      "outputs": [],
      "stateMutability": "nonpayable",
      "type": "function"
    },
    {
      "inputs": [
        {
          "internalType": "bytes4",
          "name": "iid",
          "type": "bytes4"
        }
      ],
      "name": "supportsInterface",
      "outputs": [
        {
          "internalType": "bool",
          "name": "",
          "type": "bool"
        }
      ],
      "stateMutability": "view",
      "type": "function"
    },
    {
      "inputs": [
        {
          "internalType": "uint256",
          "name": "id",
          "type": "uint256"
        }
      ],
      "name": "tokenURIOf",
      "outputs": [
        {
          "internalType": "string",
          "name": "",
          "type": "string"
        }
      ],
      "stateMutability": "view",
      "type": "function"
    },
    {
      "inputs": [],
      "name": "totalSupply",
      "outputs": [
        {
          "internalType": "uint256",
          "name": "",
          "type": "uint256"
        }
      ],
      "stateMutability": "view",
      "type": "function"
    },
    {
      "inputs": [
        {
          "internalType": "uint256",
          "name": "id",
          "type": "uint256"
        }
      ],
      "name": "totalSupply",
      "outputs": [
        {
          "internalType": "uint256",
          "name": "",
          "type": "uint256"
        }
      ],
      "stateMutability": "view",
      "type": "function"
    },
    {
      "inputs": [
        {
          "internalType": "address",
          "name": "newOwner",
          "type": "address"
        }
      ],
      "name": "transferOwnership",
      "outputs": [],
      "stateMutability": "nonpayable",
      "type": "function"
    },
    {
      "inputs": [
        {
          "internalType": "uint256",
          "name": "id",
          "type": "uint256"
        }
      ],
      "name": "uri",
      "outputs": [
        {
          "internalType": "string",
          "name": "",
          "type": "string"
        }
      ],
      "stateMutability": "view",
      "type": "function"
    }
  ],
  "bytecode": "0x6080604052346102c85761275580380380610019816102e2565b9283398101906040818303126102c85780516001600160401b0381116102c857810182601f820112156102c8578051906001600160401b0382116101a75761006a601f8301601f19166020016102e2565b93828552602083830101116102c85760005b8281106102cd57846020856000828785010152015160018060a01b0381168091036102c85781516001600160401b0381116101a757600254600181811c911680156102be575b60208210146102a857601f8111610243575b50602092601f82116001146101de57928192936000926101d3575b50508160011b916000199060031b1c1916176002555b80156101bd57600880546001600160a01b0319908116909155600780549182168317905581906001600160a01b03167f8be0079c531659141344cd1fd0a4f28419497f9722a3daafe3b4186f6b6457e0600080a3604080519081016001600160401b038111828210176101a75760409081528282526101f46020909201919091526001600160a01b03909116607d60a21b176005555161244d90816103088239f35b634e487b7160e01b600052604160045260246000fd5b631e4fbdf760e01b600052600060045260246000fd5b0151905083806100ef565b601f198216936002600052806000209160005b86811061022b5750836001959610610212575b505050811b01600255610105565b015160001960f88460031b161c19169055838080610204565b919260206001819286850151815501940192016101f1565b60026000527f405787fa12a823e0f2b7631cc41b3ba8828b3321ca811111fa75cd3aa3bb5ace601f830160051c8101916020841061029e575b601f0160051c01905b81811061029257506100d4565b60008155600101610285565b909150819061027c565b634e487b7160e01b600052602260045260246000fd5b90607f16906100c2565b600080fd5b8060208092840101518282880101520161007c565b6040519190601f01601f191682016001600160401b038111838210176101a75760405256fe6080604052600436101561001257600080fd5b60003560e01c8062fdd58e1461022657806301390f5c1461022157806301ffc9a71461021c57806304634d8d146102175780630e89341c14610212578063162094c41461020d57806318160ddd146102085780631f7fdffa146102035780632a55205a146101fe5780632eb2c2d6146101f9578063385c0eb0146101f45780634e1273f4146101ef5780634f558e79146101ea57806355f804b3146101e55780635944c753146101e0578063631ef17e146101db5780636b20c454146101d6578063715018a6146101d1578063731133e9146101cc57806379ba5097146101c75780638a616bc0146101c25780638da5cb5b146101bd578063a22cb465146101b8578063bd85b039146101b3578063cc888bab146101ae578063db3e4c84146101a9578063e30c3978146101a4578063e4994cae1461019f578063e7bc82081461019a578063e985e9c514610195578063f242432a14610190578063f2fde38b1461018b5763f5298aca1461018657600080fd5b6115ae565b611541565b611475565b611418565b6113cb565b6113a8565b61137f565b611271565b611240565b611214565b61115b565b611132565b611105565b61107b565b610ff0565b610f89565b610ea7565b610e7b565b610d86565b610c53565b610c25565b610b66565b610ac5565b610a3b565b61086b565b61078d565b61073f565b6105da565b610576565b610449565b610394565b6102bd565b610270565b600435906001600160a01b038216820361024157565b600080fd5b602435906001600160a01b038216820361024157565b35906001600160a01b038216820361024157565b346102415760403660031901126102415760206102b461028e61022b565b6024356000526000835260406000209060018060a01b0316600052602052604060002090565b54604051908152f35b34610241576020366003190112610241576004356102d9611c2e565b8060005260096020526102f060406000205461164a565b1561033d5761031161030c826000526009602052604060002090565b6116b1565b6000805160206123f883398151915261033861032c836117b3565b60405191829182610562565b0390a2005b60405162461bcd60e51b815260206004820152601960248201527f436f75706f6e313135353a206e6f20637573746f6d20555249000000000000006044820152606490fd5b6001600160e01b031981160361024157565b34610241576020366003190112610241576004356103b181610382565b63ffffffff60e01b1663152a902d60e11b81149081156103da575b506040519015158152602090f35b636cdb3d1360e11b81149150811561040c575b81156103fb575b50386103cc565b6301ffc9a760e01b149050386103f4565b6303a24d0760e21b811491506103ed565b602435906001600160601b038216820361024157565b604435906001600160601b038216820361024157565b346102415760403660031901126102415761046261022b565b61046a61041d565b90610473611c2e565b6001600160601b038216612710811161050757506001600160a01b038116156104f1576104c76104ef926104b76104a861093f565b6001600160a01b039094168452565b6001600160601b03166020830152565b80516020919091015160a01b6001600160a01b0319166001600160a01b039190911617600555565b005b635b6cc80560e11b600052600060045260246000fd5b636f483d0960e01b60005260045261271060245260446000fd5b919082519283825260005b84811061054d575050826000602080949584010152601f8019910116010190565b8060208092840101518282860101520161052c565b906020610573928181520190610521565b90565b34610241576020366003190112610241576105a96105956004356117b3565b604051918291602083526020830190610521565b0390f35b9181601f84011215610241578235916001600160401b038311610241576020838186019501011161024157565b34610241576040366003190112610241576004356024356001600160401b0381116102415761060d9036906004016105ad565b610618929192611c2e565b81600052600b60205261063360ff6040600020541615611892565b8160005260096020526040600020926001600160401b03821161073a576106648261065e865461164a565b8661190c565b600093601f83116001146106c1576106a483806000805160206123f883398151915296976000916106b6575b508160011b916000199060031b1c19161790565b90555b61033860405192839283611a13565b905084013538610690565b601f198316946106d682600052602060002090565b90805b8781106107225750846000805160206123f8833981519152969710610708575b5050600183811b0190556106a7565b830135600019600386901b60f8161c1916905538806106f9565b909160206001819285880135815501930191016106d9565b610908565b34610241576000366003190112610241576020600454604051908152f35b9181601f84011215610241578235916001600160401b038311610241576020808501948460051b01011161024157565b34610241576080366003190112610241576107a661022b565b6024356001600160401b038111610241576107c590369060040161075d565b906044356001600160401b038111610241576107e590369060040161075d565b926064356001600160401b0381116102415761083c9261082c61080f6108349336906004016105ad565b96909461081a611c2e565b610825898214611a3b565b3691610967565b953691610967565b9236916109e9565b916001600160a01b03841615610855576104ef93611d26565b632bfa23e760e11b600052600060045260246000fd5b34610241576040366003190112610241576004356000908152600660205260409020546001600160a01b038116906024359060a01c82156108f0575b6001600160601b0316908181029181830414901517156108eb576108ce9061271090611a79565b604080516001600160a01b03939093168352602083019190915290f35b61169b565b506005546001600160a01b038116925060a01c6108a7565b634e487b7160e01b600052604160045260246000fd5b90601f801991011681019081106001600160401b0382111761073a57604052565b6040519061094e60408361091e565b565b6001600160401b03811161073a5760051b60200190565b92919061097381610950565b93610981604051958661091e565b602085838152019160051b810192831161024157905b8282106109a357505050565b8135815260209182019101610997565b9080601f830112156102415781602061057393359101610967565b6001600160401b03811161073a57601f01601f191660200190565b9291926109f5826109ce565b91610a03604051938461091e565b829481845281830111610241578281602093846000960137010152565b9080601f8301121561024157816020610573933591016109e9565b346102415760a036600319011261024157610a5461022b565b610a5c610246565b906044356001600160401b03811161024157610a7c9036906004016109b3565b6064356001600160401b03811161024157610a9b9036906004016109b3565b90608435936001600160401b03851161024157610abf6104ef953690600401610a20565b93611a99565b3461024157602036600319011261024157600435610ae1611c2e565b80600052600b6020526040600020600160ff198254161790557fc88b1985dcda3e8696773b87e18a8ea74e5b688d359d86629fda95e2a167a60e600080a2005b906020808351928381520192019060005b818110610b3f5750505090565b8251845260209384019390920191600101610b32565b906020610573928181520190610b21565b34610241576040366003190112610241576004356001600160401b038111610241573660238201121561024157806004013590610ba282610950565b91610bb0604051938461091e565b8083526024602084019160051b8301019136831161024157602401905b828210610c0d57836024356001600160401b038111610241576105a991610bfb610c019236906004016109b3565b90611b25565b60405191829182610b55565b60208091610c1a8461025c565b815201910190610bcd565b3461024157602036600319011261024157600435600052600360205260206040600020541515604051908152f35b34610241576020366003190112610241576004356001600160401b03811161024157610c86610ca49136906004016105ad565b610c8e611c2e565b610c9d60ff600a541615611892565b36916109e9565b80516001600160401b03811161073a57610cc881610cc360025461164a565b6118c7565b602091601f8211600114610d0857610cf89260009183610cfd575b50508160011b916000199060031b1c19161790565b600255005b015190503880610ce3565b6002600052601f198216927f405787fa12a823e0f2b7631cc41b3ba8828b3321ca811111fa75cd3aa3bb5ace9160005b858110610d6e57508360019510610d55575b505050811b01600255005b015160001960f88460031b161c19169055388080610d4a565b91926020600181928685015181550194019201610d38565b3461024157606036600319011261024157600435610da2610246565b610daa610433565b610db2611c2e565b6001600160601b0381166127108111610e5d57506001600160a01b03821615610e43576104ef92610e0a610e1a92610dfa610deb61093f565b6001600160a01b039096168652565b6001600160601b03166020850152565b6000526006602052604060002090565b815160209092015160a01b6001600160a01b0319166001600160a01b0392909216919091179055565b82634b4f842960e11b600052600452600060245260446000fd5b8363dfd1fc1b60e01b60005260045260245261271060445260646000fd5b346102415760203660031901126102415760043560005260096020526105a96105956040600020611711565b3461024157606036600319011261024157610ec061022b565b6024356001600160401b03811161024157610edf9036906004016109b3565b906044356001600160401b03811161024157610eff9036906004016109b3565b6001600160a01b0382163381141580610f65575b610f4d5715610f38576104ef9260405192610f2f60208561091e565b60008452611c42565b626a0d4560e21b600052600060045260246000fd5b63711bec9160e11b6000523360045260245260446000fd5b50600081815260016020908152604080832033845290915290205460ff1615610f13565b3461024157600036600319011261024157610fa2611c2e565b600880546001600160a01b03199081169091556007805491821690556000906001600160a01b03167f8be0079c531659141344cd1fd0a4f28419497f9722a3daafe3b4186f6b6457e08280a3005b346102415760803660031901126102415761100961022b565b602435604435916064356001600160401b0381116102415761103261103a9136906004016105ad565b610c9d611c2e565b916001600160a01b03821615610855576104ef9361107560405192600184526020840152604083019160018352606084015260808301604052565b91611d26565b3461024157600036600319011261024157600854336001600160a01b03909116036110f057600880546001600160a01b0319908116909155600780543392811683179091556001600160a01b03167f8be0079c531659141344cd1fd0a4f28419497f9722a3daafe3b4186f6b6457e0600080a3005b63118cdaa760e01b6000523360045260246000fd5b3461024157602036600319011261024157600435611121611c2e565b600090815260066020526040812055005b34610241576000366003190112610241576007546040516001600160a01b039091168152602090f35b346102415760403660031901126102415761117461022b565b6024359081151590818303610241576001600160a01b0381169283156111ff576111c06111d19233600052600160205260406000209060018060a01b0316600052602052604060002090565b9060ff801983541691151516179055565b6040519081527f17307eab39ab6107e8899845ad3d59bd9653f200f220920489ca2b5937696c3160203392a3005b62ced3e160e81b600052600060045260246000fd5b346102415760203660031901126102415760043560005260036020526020604060002054604051908152f35b3461024157602036600319011261024157600435600052600b602052602060ff604060002054166040519015158152f35b34610241576040366003190112610241576004356001600160401b038111610241576112a190369060040161075d565b6024356001600160401b038111610241576112c090369060040161075d565b92906112ca611c2e565b6112d5848414611a3b565b60005b8381106112e157005b806112ef6001928686611bdd565b35600052600b60205261130a60ff6040600020541615611892565b61133d611318828886611bed565b90611338611327858a8a611bdd565b356000526009602052604060002090565b611946565b6000805160206123f8833981519152611357828886611bed565b611365848989959495611bdd565b359261137660405192839283611a13565b0390a2016112d8565b34610241576000366003190112610241576008546040516001600160a01b039091168152602090f35b3461024157600036600319011261024157602060ff600a54166040519015158152f35b34610241576000366003190112610241576113e4611c2e565b600160ff19600a541617600a557fcb8ee1250825b65fb9f9db82cf9039335db3185b4258fa3f81453f21741b4251600080a1005b3461024157604036600319011261024157602060ff61146961143861022b565b611440610246565b6001600160a01b0391821660009081526001865260408082209290931681526020919091522090565b54166040519015158152f35b346102415760a03660031901126102415761148e61022b565b611496610246565b60443590606435926084356001600160401b038111610241576114bd903690600401610a20565b926001600160a01b038216338114158061151d575b610f4d576001600160a01b038416156108555715610f38576104ef9461151560405192600184526020840152604083019160018352606084015260808301604052565b929091611e47565b50600081815260016020908152604080832033845290915290205460ff16156114d2565b346102415760203660031901126102415761155a61022b565b611562611c2e565b600880546001600160a01b0319166001600160a01b039283169081179091556007549091167f38d16b8cac22d99fc7c124b9cd0de2d3fa1faef420bfe791d8c362d765e22700600080a3005b34610241576060366003190112610241576115c761022b565b604435906024356001600160a01b0382163381141580611626575b610f4d5715610f38576104ef9261161660405192600184526020840152604083019160018352606084015260808301604052565b9060405192610f2f60208561091e565b50600081815260016020908152604080832033845290915290205460ff16156115e2565b90600182811c9216801561167a575b602083101461166457565b634e487b7160e01b600052602260045260246000fd5b91607f1691611659565b81811061168f575050565b60008155600101611684565b634e487b7160e01b600052601160045260246000fd5b6116bb815461164a565b90816116c5575050565b81601f600093116001146116d7575055565b818352602083206116f391601f0160051c810190600101611684565b808252602082209081548360011b9084198560031b1c191617905555565b90604051918260008254926117258461164a565b8084529360018116908115611791575060011461174a575b5061094e9250038361091e565b90506000929192526020600020906000915b81831061177557505090602061094e928201013861173d565b602091935080600191548385890101520191019091849261175c565b90506020925061094e94915060ff191682840152151560051b8201013861173d565b60005260096020526117c86040600020611711565b8051600090156117d6575090565b604051600254909250908290806117ec8461164a565b80845293600181169081156118705750600114611811575b506105739250038261091e565b60028152919290507f405787fa12a823e0f2b7631cc41b3ba8828b3321ca811111fa75cd3aa3bb5ace5b8183106118545750509060206105739282010138611804565b602091935080600191548385880101520191019091839261183b565b90506020925061057394915060ff191682840152151560051b82010138611804565b1561189957565b60405162461bcd60e51b8152602060048201526006602482015265333937bd32b760d11b6044820152606490fd5b90601f82116118d4575050565b61094e9160026000526020600020906020601f840160051c83019310611902575b601f0160051c0190611684565b90915081906118f5565b9190601f811161191b57505050565b61094e926000526020600020906020601f840160051c8301931061190257601f0160051c0190611684565b9092916001600160401b03811161073a5761196b81611965845461164a565b8461190c565b6000601f82116001146119ab57819061199c9394956000926119a05750508160011b916000199060031b1c19161790565b9055565b013590503880610ce3565b601f198216946119c084600052602060002090565b91805b8781106119fb5750836001959697106119e1575b505050811b019055565b0135600019600384901b60f8161c191690553880806119d7565b909260206001819286860135815501940191016119c3565b90918060409360208452816020850152848401376000828201840152601f01601f1916010190565b15611a4257565b60405162461bcd60e51b815260206004820152600f60248201526e098cadccee8d040dad2e6dac2e8c6d608b1b6044820152606490fd5b8115611a83570490565b634e487b7160e01b600052601260045260246000fd5b939291906001600160a01b0385163381141580611ad2575b610f4d576001600160a01b038216156108555715610f385761094e94611e47565b50600081815260016020908152604080832033845290915290205460ff1615611ab1565b634e487b7160e01b600052603260045260246000fd5b8051821015611b205760209160051b010190565b611af6565b91909180518351808203611bc6575050805190611b4182610950565b91611b4f604051938461091e565b808352611b5e601f1991610950565b0136602084013760005b8151811015611bbf5780611bae60019260051b60208082870101519189010151906000918252602082815260408084206001600160a01b03909316845291905290205490565b611bb88286611b0c565b5201611b68565b5090925050565b635b05999160e01b60005260045260245260446000fd5b9190811015611b205760051b0190565b9190811015611b205760051b81013590601e19813603018212156102415701908135916001600160401b038311610241576020018236038113610241579190565b6007546001600160a01b031633036110f057565b9091939250611c54848360008461221a565b6001600160a01b031615611cb9575b6000805b8251821015611ca7576001908260051b90611c98602080848a01015193870101516000526003602052604060002090565b82815403905501910190611c67565b91505061094e91925060045403600455565b6000805b8251821015611d0b57611d036001918360051b90611cf1602080848b01015193880101516000526003602052604060002090565b611cfc8382546121e8565b90556121e8565b910190611cbd565b611d219150611d1c906004546121e8565b600455565b611c63565b93919091611d37828487600061221a565b600094855b8451871015611d7857611d706001918860051b90611cf1602080848a010151938a0101516000526003602052604060002090565b960195611d3c565b611d8d919594929650611d1c906004546121e8565b6001600160a01b0384161580611de4575b15611daa575b50505050565b8051600103611dd35790602080611dca9593015191015191600033612148565b38808080611da4565b611ddf93600033612013565b611dca565b9360009591936000965b8551881015611e2e576001908860051b90611e1f602080848a010151938a0101516000526003602052604060002090565b82815403905501970196611dee565b611e42919593975095919560045403600455565b611d9e565b91939290611e578286838661221a565b6001600160a01b03831615611f1d575b6001600160a01b0381161580611ebc575b15611e85575b5050505050565b8451600103611eab57602080611ea19601519201519233612148565b3880808080611e7e565b611eb794919233612013565b611ea1565b94936000939091845b8651861015611f05576001908660051b90611ef6602080848a010151938b0101516000526003602052604060002090565b82815403905501950194611ec5565b611f189193969792955060045403600455565b611e78565b9392600092835b8551851015611f6057611f586001918660051b90611cf1602080848a010151938b0101516000526003602052604060002090565b940193611f24565b611f76919450611d1c90969295966004546121e8565b611e67565b90816020910312610241575161057381610382565b6001600160a01b0391821681529116602082015260a0604082018190526105739491939192611fd59291611fc79190860190610b21565b908482036060860152610b21565b916080818403910152610521565b3d1561200e573d90611ff4826109ce565b91612002604051938461091e565b82523d6000602084013e565b606090565b9091949293853b612027575b505050505050565b60209361204991604051968795869563bc197c8160e01b875260048701611f90565b038160006001600160a01b0387165af1600091816120de575b5061209e5750612070611fe3565b805191908261209757632bfa23e760e11b6000526001600160a01b03821660045260246000fd5b6020915001fd5b6001600160e01b0319166343e6837f60e01b016120c1575038808080808061201f565b632bfa23e760e11b6000526001600160a01b031660045260246000fd5b61210191925060203d602011612108575b6120f9818361091e565b810190611f7b565b9038612062565b503d6120ef565b6001600160a01b039182168152911660208201526040810191909152606081019190915260a06080820181905261057392910190610521565b9091949293853b61215b57505050505050565b60209361217d91604051968795869563f23a6e6160e01b87526004870161210f565b038160006001600160a01b0387165af1600091816121c7575b506121a45750612070611fe3565b6001600160e01b031916630dc5919f60e01b016120c1575038808080808061201f565b6121e191925060203d602011612108576120f9818361091e565b9038612196565b919082018092116108eb57565b909161220c61057393604084526040840190610b21565b916020818403910152610b21565b93929180518351908181036123e057505060005b815181101561233a578060051b90602080838501015192860101518460018060a01b0389166122b7575b6001936001600160a01b038216612273575b5050500161222e565b6122ad9161228e6122a5926000526000602052604060002090565b9060018060a01b0316600052602052604060002090565b9182546121e8565b905538848161226a565b5090916122d28861228e836000526000602052604060002090565b54828110612303578291600194938792036122fb8b61228e846000526000602052604060002090565b559350612258565b6040516303dee4c560e01b81526001600160a01b038a16600482015260248101919091526044810183905260648101829052608490fd5b50805193949391929160010361239d576020908101519181015160408051938452918301526001600160a01b03928316939092169133917fc3d58168c5ae7397731d063d5bbf3d657854427343f4c083240f7aacaa2d0f6291819081015b0390a4565b6040516001600160a01b03938416949093169233927f4a39dc06d4c0dbc64b70af90fd698a233a518aa5d07e595d983b8c0526c8f7fb92829161239891836121f5565b635b05999160e01b60005260045260245260446000fdfe6bb7ff708619ba0610cba295a58592e0451dee2622938c8755667688daf3529ba264697066735822122073a2f7adf6f262efa5dc02573392999bc5add0b8a54adffff68719cf8f68593164736f6c634300081c0033",
  "linkReferences": {},
  "deployedLinkReferences": {}
}