{
  "_format": "hh-sol-artifact-1",
  "contractName": "Payment",
  "sourceName": "contracts/Payment.sol",
  "abi": [
    {
      "inputs": [
        {
          "internalType": "address",
          "name": "_token",
          "type": "address"
        },
        {
          "internalType": "address",
          "name": "_vaultAddress",
          "type": "address"
        }
      ],
      "stateMutability": "nonpayable",
      "type": "constructor"
    },
    {
      "inputs": [
        {
          "internalType": "address",
          "name": "owner",
          "type": "address"
        }
      ],
      "name": "OwnableInvalidOwner",
      "type": "error"
    },
    {
      "inputs": [
        {
          "internalType": "address",
          "name": "account",
          "type": "address"
        }
      ],
      "name": "OwnableUnauthorizedAccount",
      "type": "error"
    },
    {
      "anonymous": false,
      "inputs": [
        {
          "indexed": false,
          "internalType": "uint256",
          "name": "oldRate",
          "type": "uint256"
        },
        {
          "indexed": false,
          "internalType": "uint256",
          "name": "newRate",
          "type": "uint256"
        }
      ],
      "name": "CashbackRateUpdated",
      "type": "event"
    },
    {
      "anonymous": false,
      "inputs": [
        {
          "indexed": true,
          "internalType": "address",
          "name": "buyer",
          "type": "address"
        },
        {
          "indexed": false,
          "internalType": "uint256",
          "name": "cashbackAmount",
          "type": "uint256"
        },
        {
          "indexed": true,
          "internalType": "address",
          "name": "vault",
          "type": "address"
        },
        {
          "indexed": false,
          "internalType": "uint256",
          "name": "cashbackRate",
          "type": "uint256"
        },
        {
          "indexed": false,
          "internalType": "uint256",
          "name": "originalAmount",
          "type": "uint256"
        }
      ],
      "name": "CashbackSent",
      "type": "event"
    },
    {
      "anonymous": false,
      "inputs": [
        {
          "indexed": true,
          "internalType": "address",
          "name": "to",
          "type": "address"
        },
        {
          "indexed": false,
          "internalType": "uint256",
          "name": "amount",
          "type": "uint256"
        }
      ],
      "name": "CashbackWrapped",
      "type": "event"
    },
    {
      "anonymous": false,
      "inputs": [
        {
          "indexed": true,
          "internalType": "address",
          "name": "previousOwner",
          "type": "address"
        },
        {
          "indexed": true,
          "internalType": "address",
          "name": "newOwner",
          "type": "address"
        }
      ],
      "name": "OwnershipTransferred",
      "type": "event"
    },
    {
      "anonymous": false,
      "inputs": [
        {
          "indexed": true,
          "internalType": "address",
          "name": "buyer",
          "type": "address"
        },
        {
          "indexed": false,
          "internalType": "uint256",
          "name": "amount",
          "type": "uint256"
        },
        {
          "indexed": true,
          "internalType": "address",
          "name": "vault",
          "type": "address"
        },
        {
          "indexed": false,
          "internalType": "uint256",
          "name": "cashbackRate",
          "type": "uint256"
        },
        {
          "indexed": false,
          "internalType": "uint256",
          "name": "cashbackAmount",
          "type": "uint256"
        }
      ],
      "name": "Paid",
      "type": "event"
    },
    {
      "anonymous": false,
      "inputs": [
        {
          "indexed": false,
          "internalType": "address",
          "name": "oldVault",
          "type": "address"
        },
        {
          "indexed": false,
          "internalType": "address",
          "name": "newVault",
          "type": "address"
        }
      ],
      "name": "VaultAddressUpdated",
      "type": "event"
    },
    {
      "inputs": [],
      "name": "cashbackRate",
      "outputs": [
        {
          "internalType": "uint256",
          "name": "",
          "type": "uint256"
        }
      ],
      "stateMutability": "view",
      "type": "function"
    },
    {
      "inputs": [
        {
          "internalType": "address",
          "name": "to",
          "type": "address"
        },
        {
          "internalType": "uint256",
          "name": "amount",
          "type": "uint256"
        }
      ],
      "name": "executeProvideCashback",
      "outputs": [],
      "stateMutability": "nonpayable",
      "type": "function"
    },
    {
      "inputs": [],
      "name": "getTokenAddress",
      "outputs": [
        {
          "internalType": "address",
          "name": "",
          "type": "address"
        }
      ],
      "stateMutability": "view",
      "type": "function"
    },
    {
      "inputs": [],
      "name": "getVaultAddress",
      "outputs": [
        {
          "internalType": "address",
          "name": "",
          "type": "address"
        }
      ],
      "stateMutability": "view",
      "type": "function"
    },
    {
      "inputs": [],
      "name": "owner",
      "outputs": [
        {
          "internalType": "address",
          "name": "",
          "type": "address"
        }
      ],
      "stateMutability": "view",
      "type": "function"
    },
    {
      "inputs": [
        {
          "internalType": "address",
          "name": "owner",
          "type": "address"
        },
        {
          "internalType": "uint256",
          "name": "value",
          "type": "uint256"
        },
        {
          "internalType": "uint256",
          "name": "deadline",
          "type": "uint256"
        },
        {
          "internalType": "uint8",
          "name": "v",
          "type": "uint8"
        },
        {
          "internalType": "bytes32",
          "name": "r",
          "type": "bytes32"
        },
        {
          "internalType": "bytes32",
          "name": "s",
          "type": "bytes32"
        },
        {
          "internalType": "uint256",
          "name": "amount",
          "type": "uint256"
        }
      ],
      "name": "permitAndPayWithCashback",
      "outputs": [],
      "stateMutability": "nonpayable",
      "type": "function"
    },
    {
      "inputs": [
        {
          "internalType": "address",
          "name": "to",
          "type": "address"
        },
        {
          "internalType": "uint256",
          "name": "amount",
          "type": "uint256"
        }
      ],
      "name": "provideCashback",
      "outputs": [],
      "stateMutability": "nonpayable",
      "type": "function"
    },
    {
      "inputs": [],
      "name": "renounceOwnership",
      "outputs": [],
      "stateMutability": "nonpayable",
      "type": "function"
    },
    {
      "inputs": [
        {
          "internalType": "uint256",
          "name": "_rate",
          "type": "uint256"
        }
      ],
      "name": "setCashbackRate",
      "outputs": [],
      "stateMutability": "nonpayable",
      "type": "function"
    },
    {
      "inputs": [
        {
          "internalType": "address",
          "name": "_vault",
          "type": "address"
        }
      ],
      "name": "setVaultAddress",
      "outputs": [],
      "stateMutability": "nonpayable",
      "type": "function"
    },
    {
      "inputs": [],
      "name": "token",
      "outputs": [
        {
          "internalType": "contract IERC20",
          "name": "",
          "type": "address"
        }
      ],
      "stateMutability": "view",
      "type": "function"
    },
    {
      "inputs": [
        {
          "internalType": "address",
          "name": "newOwner",
          "type": "address"
        }
      ],
      "name": "transferOwnership",
      "outputs": [],
      "stateMutability": "nonpayable",
      "type": "function"
    },
    {
      "inputs": [],
      "name": "vaultAddress",
      "outputs": [
        {
          "internalType": "address",
          "name": "",
          "type": "address"
        }
      ],
      "stateMutability": "view",
      "type": "function"
    }
  ],
  "bytecode": "0x6080604052600260035534801561001557600080fd5b50604051611b48380380611b4883398181016040528101906100379190610348565b33600073ffffffffffffffffffffffffffffffffffffffff168173ffffffffffffffffffffffffffffffffffffffff16036100aa5760006040517f1e4fbdf70000000000000000000000000000000000000000000000000000000081526004016100a19190610397565b60405180910390fd5b6100b98161022160201b60201c565b50600073ffffffffffffffffffffffffffffffffffffffff168273ffffffffffffffffffffffffffffffffffffffff1603610129576040517f08c379a00000000000000000000000000000000000000000000000000000000081526004016101209061040f565b60405180910390fd5b600073ffffffffffffffffffffffffffffffffffffffff168173ffffffffffffffffffffffffffffffffffffffff1603610198576040517f08c379a000000000000000000000000000000000000000000000000000000000815260040161018f9061047b565b60405180910390fd5b81600160006101000a81548173ffffffffffffffffffffffffffffffffffffffff021916908373ffffffffffffffffffffffffffffffffffffffff16021790555080600260006101000a81548173ffffffffffffffffffffffffffffffffffffffff021916908373ffffffffffffffffffffffffffffffffffffffff160217905550505061049b565b60008060009054906101000a900473ffffffffffffffffffffffffffffffffffffffff169050816000806101000a81548173ffffffffffffffffffffffffffffffffffffffff021916908373ffffffffffffffffffffffffffffffffffffffff1602179055508173ffffffffffffffffffffffffffffffffffffffff168173ffffffffffffffffffffffffffffffffffffffff167f8be0079c531659141344cd1fd0a4f28419497f9722a3daafe3b4186f6b6457e060405160405180910390a35050565b600080fd5b600073ffffffffffffffffffffffffffffffffffffffff82169050919050565b6000610315826102ea565b9050919050565b6103258161030a565b811461033057600080fd5b50565b6000815190506103428161031c565b92915050565b6000806040838503121561035f5761035e6102e5565b5b600061036d85828601610333565b925050602061037e85828601610333565b9150509250929050565b6103918161030a565b82525050565b60006020820190506103ac6000830184610388565b92915050565b600082825260208201905092915050565b7f496e76616c696420746f6b656e20616464726573730000000000000000000000600082015250565b60006103f96015836103b2565b9150610404826103c3565b602082019050919050565b60006020820190508181036000830152610428816103ec565b9050919050565b7f496e76616c6964207661756c7420616464726573730000000000000000000000600082015250565b60006104656015836103b2565b91506104708261042f565b602082019050919050565b6000602082019050818103600083015261049481610458565b9050919050565b61169e806104aa6000396000f3fe608060405234801561001057600080fd5b50600436106100cf5760003560e01c806385535cc51161008c5780638da5cb5b116100665780638da5cb5b146101c45780639c7bc08e146101e2578063f2fde38b14610200578063fc0c546a1461021c576100cf565b806385535cc514610170578063867472431461018c5780638c7b6e38146101a8576100cf565b806310fe9ae8146100d4578063430bf08a146100f257806365cacaa4146101105780636e1a82261461012e578063715018a61461014a5780637bbb94d614610154575b600080fd5b6100dc61023a565b6040516100e99190610e1e565b60405180910390f35b6100fa610264565b6040516101079190610e1e565b60405180910390f35b61011861028a565b6040516101259190610e1e565b60405180910390f35b61014860048036038101906101439190610ea0565b6102b4565b005b6101526103e0565b005b61016e60048036038101906101699190610f4f565b6103f4565b005b61018a60048036038101906101859190610ff1565b6108d0565b005b6101a660048036038101906101a19190610ea0565b6109ec565b005b6101c260048036038101906101bd919061101e565b610b18565b005b6101cc610baf565b6040516101d99190610e1e565b60405180910390f35b6101ea610bd8565b6040516101f7919061105a565b60405180910390f35b61021a60048036038101906102159190610ff1565b610bde565b005b610224610c64565b60405161023191906110d4565b60405180910390f35b6000600160009054906101000a900473ffffffffffffffffffffffffffffffffffffffff16905090565b600260009054906101000a900473ffffffffffffffffffffffffffffffffffffffff1681565b6000600260009054906101000a900473ffffffffffffffffffffffffffffffffffffffff16905090565b6102bc610c8a565b600081116102ff576040517f08c379a00000000000000000000000000000000000000000000000000000000081526004016102f69061114c565b60405180910390fd5b600260009054906101000a900473ffffffffffffffffffffffffffffffffffffffff1673ffffffffffffffffffffffffffffffffffffffff16636e1a822683836040518363ffffffff1660e01b815260040161035c92919061116c565b600060405180830381600087803b15801561037657600080fd5b505af115801561038a573d6000803e3d6000fd5b505050508173ffffffffffffffffffffffffffffffffffffffff167fd73a3592225e67a63d8fd8347d54f3a8d7e8d373823431ae5ab78fa7e01ea56f826040516103d4919061105a565b60405180910390a25050565b6103e8610c8a565b6103f26000610d11565b565b600073ffffffffffffffffffffffffffffffffffffffff168773ffffffffffffffffffffffffffffffffffffffff1603610463576040517f08c379a000000000000000000000000000000000000000000000000000000000815260040161045a906111e1565b60405180910390fd5b600160009054906101000a900473ffffffffffffffffffffffffffffffffffffffff1673ffffffffffffffffffffffffffffffffffffffff1663d505accf883089898989896040518863ffffffff1660e01b81526004016104ca979695949392919061121f565b600060405180830381600087803b1580156104e457600080fd5b505af11580156104f8573d6000803e3d6000fd5b50505050600160009054906101000a900473ffffffffffffffffffffffffffffffffffffffff1673ffffffffffffffffffffffffffffffffffffffff166323b872dd8830846040518463ffffffff1660e01b815260040161055b9392919061128e565b6020604051808303816000875af115801561057a573d6000803e3d6000fd5b505050506040513d601f19601f8201168201806040525081019061059e91906112fd565b6105dd576040517f08c379a00000000000000000000000000000000000000000000000000000000081526004016105d490611376565b60405180910390fd5b60006064600354836105ef91906113c5565b6105f99190611436565b9050600081111561072157600260009054906101000a900473ffffffffffffffffffffffffffffffffffffffff1673ffffffffffffffffffffffffffffffffffffffff16636e1a822689836040518363ffffffff1660e01b815260040161066192919061116c565b600060405180830381600087803b15801561067b57600080fd5b505af115801561068f573d6000803e3d6000fd5b50505050600260009054906101000a900473ffffffffffffffffffffffffffffffffffffffff1673ffffffffffffffffffffffffffffffffffffffff168873ffffffffffffffffffffffffffffffffffffffff167ff8ddeb74a4b765e48fa8fd57436787563feb6e1222fe9dcf0f28be7a5d24c18b836003548660405161071893929190611467565b60405180910390a35b6000818361072f919061149e565b90506000600160009054906101000a900473ffffffffffffffffffffffffffffffffffffffff1673ffffffffffffffffffffffffffffffffffffffff1663a9059cbb600260009054906101000a900473ffffffffffffffffffffffffffffffffffffffff16846040518363ffffffff1660e01b81526004016107b292919061116c565b6020604051808303816000875af11580156107d1573d6000803e3d6000fd5b505050506040513d601f19601f820116820180604052508101906107f591906112fd565b905080610837576040517f08c379a000000000000000000000000000000000000000000000000000000000815260040161082e9061151e565b60405180910390fd5b600260009054906101000a900473ffffffffffffffffffffffffffffffffffffffff1673ffffffffffffffffffffffffffffffffffffffff168a73ffffffffffffffffffffffffffffffffffffffff167f9e031369c03d4b670c8dc667ffdcd4ff42e861fdd2057cb7eafefa9a5270c90186600354876040516108bc93929190611467565b60405180910390a350505050505050505050565b6108d8610c8a565b600073ffffffffffffffffffffffffffffffffffffffff168173ffffffffffffffffffffffffffffffffffffffff1603610947576040517f08c379a000000000000000000000000000000000000000000000000000000000815260040161093e9061158a565b60405180910390fd5b6000600260009054906101000a900473ffffffffffffffffffffffffffffffffffffffff16905081600260006101000a81548173ffffffffffffffffffffffffffffffffffffffff021916908373ffffffffffffffffffffffffffffffffffffffff1602179055507fe9f55cae89b38ece5807aa40c2a72a7c9002bd4cedd1bfaeb48922fda0d3a82681836040516109e09291906115aa565b60405180910390a15050565b6109f4610c8a565b60008111610a37576040517f08c379a0000000000000000000000000000000000000000000000000000000008152600401610a2e9061114c565b60405180910390fd5b600260009054906101000a900473ffffffffffffffffffffffffffffffffffffffff1673ffffffffffffffffffffffffffffffffffffffff16636e1a822683836040518363ffffffff1660e01b8152600401610a9492919061116c565b600060405180830381600087803b158015610aae57600080fd5b505af1158015610ac2573d6000803e3d6000fd5b505050508173ffffffffffffffffffffffffffffffffffffffff167fd73a3592225e67a63d8fd8347d54f3a8d7e8d373823431ae5ab78fa7e01ea56f82604051610b0c919061105a565b60405180910390a25050565b610b20610c8a565b6064811115610b64576040517f08c379a0000000000000000000000000000000000000000000000000000000008152600401610b5b9061161f565b60405180910390fd5b60006003549050816003819055507fcfc83c9b64ff6e3286f17245a52d0fb92bd366166768d612bb1b8b476447889c8183604051610ba392919061163f565b60405180910390a15050565b60008060009054906101000a900473ffffffffffffffffffffffffffffffffffffffff16905090565b60035481565b610be6610c8a565b600073ffffffffffffffffffffffffffffffffffffffff168173ffffffffffffffffffffffffffffffffffffffff1603610c585760006040517f1e4fbdf7000000000000000000000000000000000000000000000000000000008152600401610c4f9190610e1e565b60405180910390fd5b610c6181610d11565b50565b600160009054906101000a900473ffffffffffffffffffffffffffffffffffffffff1681565b610c92610dd5565b73ffffffffffffffffffffffffffffffffffffffff16610cb0610baf565b73ffffffffffffffffffffffffffffffffffffffff1614610d0f57610cd3610dd5565b6040517f118cdaa7000000000000000000000000000000000000000000000000000000008152600401610d069190610e1e565b60405180910390fd5b565b60008060009054906101000a900473ffffffffffffffffffffffffffffffffffffffff169050816000806101000a81548173ffffffffffffffffffffffffffffffffffffffff021916908373ffffffffffffffffffffffffffffffffffffffff1602179055508173ffffffffffffffffffffffffffffffffffffffff168173ffffffffffffffffffffffffffffffffffffffff167f8be0079c531659141344cd1fd0a4f28419497f9722a3daafe3b4186f6b6457e060405160405180910390a35050565b600033905090565b600073ffffffffffffffffffffffffffffffffffffffff82169050919050565b6000610e0882610ddd565b9050919050565b610e1881610dfd565b82525050565b6000602082019050610e336000830184610e0f565b92915050565b600080fd5b610e4781610dfd565b8114610e5257600080fd5b50565b600081359050610e6481610e3e565b92915050565b6000819050919050565b610e7d81610e6a565b8114610e8857600080fd5b50565b600081359050610e9a81610e74565b92915050565b60008060408385031215610eb757610eb6610e39565b5b6000610ec585828601610e55565b9250506020610ed685828601610e8b565b9150509250929050565b600060ff82169050919050565b610ef681610ee0565b8114610f0157600080fd5b50565b600081359050610f1381610eed565b92915050565b6000819050919050565b610f2c81610f19565b8114610f3757600080fd5b50565b600081359050610f4981610f23565b92915050565b600080600080600080600060e0888a031215610f6e57610f6d610e39565b5b6000610f7c8a828b01610e55565b9750506020610f8d8a828b01610e8b565b9650506040610f9e8a828b01610e8b565b9550506060610faf8a828b01610f04565b9450506080610fc08a828b01610f3a565b93505060a0610fd18a828b01610f3a565b92505060c0610fe28a828b01610e8b565b91505092959891949750929550565b60006020828403121561100757611006610e39565b5b600061101584828501610e55565b91505092915050565b60006020828403121561103457611033610e39565b5b600061104284828501610e8b565b91505092915050565b61105481610e6a565b82525050565b600060208201905061106f600083018461104b565b92915050565b6000819050919050565b600061109a61109561109084610ddd565b611075565b610ddd565b9050919050565b60006110ac8261107f565b9050919050565b60006110be826110a1565b9050919050565b6110ce816110b3565b82525050565b60006020820190506110e960008301846110c5565b92915050565b600082825260208201905092915050565b7f416d6f756e74206d757374206265203e20300000000000000000000000000000600082015250565b60006111366012836110ef565b915061114182611100565b602082019050919050565b6000602082019050818103600083015261116581611129565b9050919050565b60006040820190506111816000830185610e0f565b61118e602083018461104b565b9392505050565b7f496e76616c6964206f776e657220616464726573730000000000000000000000600082015250565b60006111cb6015836110ef565b91506111d682611195565b602082019050919050565b600060208201905081810360008301526111fa816111be565b9050919050565b61120a81610ee0565b82525050565b61121981610f19565b82525050565b600060e082019050611234600083018a610e0f565b6112416020830189610e0f565b61124e604083018861104b565b61125b606083018761104b565b6112686080830186611201565b61127560a0830185611210565b61128260c0830184611210565b98975050505050505050565b60006060820190506112a36000830186610e0f565b6112b06020830185610e0f565b6112bd604083018461104b565b949350505050565b60008115159050919050565b6112da816112c5565b81146112e557600080fd5b50565b6000815190506112f7816112d1565b92915050565b60006020828403121561131357611312610e39565b5b6000611321848285016112e8565b91505092915050565b7f5061796d656e74206661696c6564000000000000000000000000000000000000600082015250565b6000611360600e836110ef565b915061136b8261132a565b602082019050919050565b6000602082019050818103600083015261138f81611353565b9050919050565b7f4e487b7100000000000000000000000000000000000000000000000000000000600052601160045260246000fd5b60006113d082610e6a565b91506113db83610e6a565b92508282026113e981610e6a565b91508282048414831517611400576113ff611396565b5b5092915050565b7f4e487b7100000000000000000000000000000000000000000000000000000000600052601260045260246000fd5b600061144182610e6a565b915061144c83610e6a565b92508261145c5761145b611407565b5b828204905092915050565b600060608201905061147c600083018661104b565b611489602083018561104b565b611496604083018461104b565b949350505050565b60006114a982610e6a565b91506114b483610e6a565b92508282039050818111156114cc576114cb611396565b5b92915050565b7f5661756c74207472616e73666572206661696c65640000000000000000000000600082015250565b60006115086015836110ef565b9150611513826114d2565b602082019050919050565b60006020820190508181036000830152611537816114fb565b9050919050565b7f496e76616c6964207661756c7420616464726573730000000000000000000000600082015250565b60006115746015836110ef565b915061157f8261153e565b602082019050919050565b600060208201905081810360008301526115a381611567565b9050919050565b60006040820190506115bf6000830185610e0f565b6115cc6020830184610e0f565b9392505050565b7f52617465206d757374206265203c3d2031303000000000000000000000000000600082015250565b60006116096013836110ef565b9150611614826115d3565b602082019050919050565b60006020820190508181036000830152611638816115fc565b9050919050565b6000604082019050611654600083018561104b565b611661602083018461104b565b939250505056fea26469706673582212209fcafec974f5375fa1c3f60b89b4a5aa26b3da974a1c2f0c96d27cfe64c22c2864736f6c634300081c0033",
  "linkReferences": {},
  "deployedLinkReferences": {}
}